{
  "contractName": "MicroCredentialing",
  "abi": [
    {
      "inputs": [],
      "stateMutability": "nonpayable",
      "type": "constructor"
    },
    {
      "anonymous": false,
      "inputs": [
        {
          "indexed": false,
          "internalType": "address",
          "name": "userAddress",
          "type": "address"
        }
      ],
      "name": "CredentialIssued",
      "type": "event"
    },
    {
      "anonymous": false,
      "inputs": [
        {
          "indexed": false,
          "internalType": "address",
          "name": "userAddress",
          "type": "address"
        }
      ],
      "name": "CredentialRevoked",
      "type": "event"
    },
    {
      "anonymous": false,
      "inputs": [
        {
          "indexed": false,
          "internalType": "address",
          "name": "userAddress",
          "type": "address"
        },
        {
          "indexed": false,
          "internalType": "bool",
          "name": "isAdmin",
          "type": "bool"
        },
        {
          "indexed": false,
          "internalType": "bool",
          "name": "isFaculty",
          "type": "bool"
        },
        {
          "indexed": false,
          "internalType": "bool",
          "name": "isStudent",
          "type": "bool"
        }
      ],
      "name": "UserRegistered",
      "type": "event"
    },
    {
      "inputs": [
        {
          "internalType": "address",
          "name": "",
          "type": "address"
        }
      ],
      "name": "credentials",
      "outputs": [
        {
          "internalType": "bool",
          "name": "",
          "type": "bool"
        }
      ],
      "stateMutability": "view",
      "type": "function",
      "constant": true
    },
    {
      "inputs": [],
      "name": "owner",
      "outputs": [
        {
          "internalType": "address",
          "name": "",
          "type": "address"
        }
      ],
      "stateMutability": "view",
      "type": "function",
      "constant": true
    },
    {
      "inputs": [
        {
          "internalType": "address",
          "name": "",
          "type": "address"
        }
      ],
      "name": "users",
      "outputs": [
        {
          "internalType": "bool",
          "name": "isAdmin",
          "type": "bool"
        },
        {
          "internalType": "bool",
          "name": "isFaculty",
          "type": "bool"
        },
        {
          "internalType": "bool",
          "name": "isStudent",
          "type": "bool"
        }
      ],
      "stateMutability": "view",
      "type": "function",
      "constant": true
    },
    {
      "inputs": [
        {
          "internalType": "bool",
          "name": "_isAdmin",
          "type": "bool"
        },
        {
          "internalType": "bool",
          "name": "_isFaculty",
          "type": "bool"
        },
        {
          "internalType": "bool",
          "name": "_isStudent",
          "type": "bool"
        }
      ],
      "name": "registerUser",
      "outputs": [],
      "stateMutability": "nonpayable",
      "type": "function"
    },
    {
      "inputs": [
        {
          "internalType": "address",
          "name": "_userAddress",
          "type": "address"
        }
      ],
      "name": "issueCredential",
      "outputs": [],
      "stateMutability": "nonpayable",
      "type": "function"
    },
    {
      "inputs": [
        {
          "internalType": "address",
          "name": "_userAddress",
          "type": "address"
        }
      ],
      "name": "verifyCredential",
      "outputs": [
        {
          "internalType": "bool",
          "name": "",
          "type": "bool"
        }
      ],
      "stateMutability": "view",
      "type": "function",
      "constant": true
    },
    {
      "inputs": [
        {
          "internalType": "address",
          "name": "_userAddress",
          "type": "address"
        }
      ],
      "name": "revokeCredential",
      "outputs": [],
      "stateMutability": "nonpayable",
      "type": "function"
    }
  ],
  "bytecode": "0x608060405234801561001057600080fd5b50336000806101000a81548173ffffffffffffffffffffffffffffffffffffffff021916908373ffffffffffffffffffffffffffffffffffffffff160217905550610a7f806100606000396000f3fe608060405234801561001057600080fd5b506004361061007d5760003560e01c806370dd0dbc1161005b57806370dd0dbc146100ea57806384f47afe1461011a5780638da5cb5b14610136578063a87430ba146101545761007d565b80631dee2fdf1461008257806341f76ecd1461009e5780636016dd4a146100ba575b600080fd5b61009c600480360381019061009791906106f2565b610186565b005b6100b860048036038101906100b3919061071b565b610329565b005b6100d460048036038101906100cf91906106f2565b61042e565b6040516100e1919061091a565b60405180910390f35b61010460048036038101906100ff91906106f2565b61044e565b604051610111919061091a565b60405180910390f35b610134600480360381019061012f91906106f2565b6104a4565b005b61013e610653565b60405161014b91906108ba565b60405180910390f35b61016e600480360381019061016991906106f2565b610677565b60405161017d93929190610935565b60405180910390f35b60008054906101000a900473ffffffffffffffffffffffffffffffffffffffff1673ffffffffffffffffffffffffffffffffffffffff163373ffffffffffffffffffffffffffffffffffffffff1614610214576040517f08c379a000000000000000000000000000000000000000000000000000000000815260040161020b9061098c565b60405180910390fd5b600260008273ffffffffffffffffffffffffffffffffffffffff1673ffffffffffffffffffffffffffffffffffffffff16815260200190815260200160002060009054906101000a900460ff166102a0576040517f08c379a0000000000000000000000000000000000000000000000000000000008152600401610297906109ac565b60405180910390fd5b600260008273ffffffffffffffffffffffffffffffffffffffff1673ffffffffffffffffffffffffffffffffffffffff16815260200190815260200160002060006101000a81549060ff02191690557f4fc96fe98b4271e4b4b55ada79755e0e3fe3f648a2857c2de602e83a25a8ee578160405161031e91906108ba565b60405180910390a150565b604051806060016040528084151581526020018315158152602001821515815250600160003373ffffffffffffffffffffffffffffffffffffffff1673ffffffffffffffffffffffffffffffffffffffff16815260200190815260200160002060008201518160000160006101000a81548160ff02191690831515021790555060208201518160000160016101000a81548160ff02191690831515021790555060408201518160000160026101000a81548160ff0219169083151502179055509050507f0dfb77a1d959666c200e248287b029d1ec4bf434967e7ed82bc3865c47a4de323384848460405161042194939291906108d5565b60405180910390a1505050565b60026020528060005260406000206000915054906101000a900460ff1681565b6000600260008373ffffffffffffffffffffffffffffffffffffffff1673ffffffffffffffffffffffffffffffffffffffff16815260200190815260200160002060009054906101000a900460ff169050919050565b60008054906101000a900473ffffffffffffffffffffffffffffffffffffffff1673ffffffffffffffffffffffffffffffffffffffff163373ffffffffffffffffffffffffffffffffffffffff1614610532576040517f08c379a00000000000000000000000000000000000000000000000000000000081526004016105299061098c565b60405180910390fd5b600160008273ffffffffffffffffffffffffffffffffffffffff1673ffffffffffffffffffffffffffffffffffffffff16815260200190815260200160002060000160029054906101000a900460ff166105c1576040517f08c379a00000000000000000000000000000000000000000000000000000000081526004016105b89061096c565b60405180910390fd5b6001600260008373ffffffffffffffffffffffffffffffffffffffff1673ffffffffffffffffffffffffffffffffffffffff16815260200190815260200160002060006101000a81548160ff0219169083151502179055507f0b897de760f520df1b9bed7fe609ea8938eba8a58b07ca7113e92c08f5f21fc98160405161064891906108ba565b60405180910390a150565b60008054906101000a900473ffffffffffffffffffffffffffffffffffffffff1681565b60016020528060005260406000206000915090508060000160009054906101000a900460ff16908060000160019054906101000a900460ff16908060000160029054906101000a900460ff16905083565b6000813590506106d781610a1b565b92915050565b6000813590506106ec81610a32565b92915050565b60006020828403121561070457600080fd5b6000610712848285016106c8565b91505092915050565b60008060006060848603121561073057600080fd5b600061073e868287016106dd565b935050602061074f868287016106dd565b9250506040610760868287016106dd565b9150509250925092565b610773816109dd565b82525050565b610782816109ef565b82525050565b6000610795602e836109cc565b91507f55736572206d75737420626520612073747564656e7420746f2072656365697660008301527f6520612063726564656e7469616c0000000000000000000000000000000000006020830152604082019050919050565b60006107fb602b836109cc565b91507f4f6e6c7920636f6e7472616374206f776e65722063616e20706572666f726d2060008301527f7468697320616374696f6e0000000000000000000000000000000000000000006020830152604082019050919050565b60006108616023836109cc565b91507f43726564656e7469616c206d7573742062652069737375656420746f2072657660008301527f6f6b6500000000000000000000000000000000000000000000000000000000006020830152604082019050919050565b60006020820190506108cf600083018461076a565b92915050565b60006080820190506108ea600083018761076a565b6108f76020830186610779565b6109046040830185610779565b6109116060830184610779565b95945050505050565b600060208201905061092f6000830184610779565b92915050565b600060608201905061094a6000830186610779565b6109576020830185610779565b6109646040830184610779565b949350505050565b6000602082019050818103600083015261098581610788565b9050919050565b600060208201905081810360008301526109a5816107ee565b9050919050565b600060208201905081810360008301526109c581610854565b9050919050565b600082825260208201905092915050565b60006109e8826109fb565b9050919050565b60008115159050919050565b600073ffffffffffffffffffffffffffffffffffffffff82169050919050565b610a24816109dd565b8114610a2f57600080fd5b50565b610a3b816109ef565b8114610a4657600080fd5b5056fea2646970667358221220adc7b23204e1ca60ded9870dc5f56ef735e6c4560298330e5d9aa9ec58b5324364736f6c63430008000033",
  "immutableReferences": {},
  "source": "// SPDX-License-Identifier: MIT\r\npragma solidity ^0.8.0;\r\n\r\ncontract MicroCredentialing {\r\n    address public owner;\r\n    \r\n    // Struct to represent a user\r\n    struct User {\r\n        bool isAdmin;\r\n        bool isFaculty;\r\n        bool isStudent;\r\n    }\r\n    \r\n    // Mapping to store user details\r\n    mapping(address => User) public users;\r\n    \r\n    // Mapping to store issued credentials\r\n    mapping(address => bool) public credentials;\r\n    \r\n    // Events for user registration, credential issuance, and revocation\r\n    event UserRegistered(address userAddress, bool isAdmin, bool isFaculty, bool isStudent);\r\n    event CredentialIssued(address userAddress);\r\n    event CredentialRevoked(address userAddress);\r\n    \r\n    // Constructor to set contract owner\r\n    constructor() {\r\n        owner = msg.sender;\r\n    }\r\n    \r\n    // Modifier to restrict access to only the contract owner\r\n    modifier onlyOwner() {\r\n        require(msg.sender == owner, \"Only contract owner can perform this action\");\r\n        _;\r\n    }\r\n    \r\n    // Function to register a new user\r\n    function registerUser(bool _isAdmin, bool _isFaculty, bool _isStudent) public {\r\n        users[msg.sender] = User(_isAdmin, _isFaculty, _isStudent);\r\n        emit UserRegistered(msg.sender, _isAdmin, _isFaculty, _isStudent);\r\n    }\r\n    \r\n    // Function to issue a credential to a user\r\n    function issueCredential(address _userAddress) public onlyOwner {\r\n        require(users[_userAddress].isStudent, \"User must be a student to receive a credential\");\r\n        credentials[_userAddress] = true;\r\n        emit CredentialIssued(_userAddress);\r\n    }\r\n    \r\n    // Function to verify if a credential is valid\r\n    function verifyCredential(address _userAddress) public view returns (bool) {\r\n        return credentials[_userAddress];\r\n    }\r\n    \r\n    // Function to revoke a credential\r\n    function revokeCredential(address _userAddress) public onlyOwner {\r\n        require(credentials[_userAddress], \"Credential must be issued to revoke\");\r\n        delete credentials[_userAddress];\r\n        emit CredentialRevoked(_userAddress);\r\n    }\r\n}\r\n",
  "sourcePath": "C:\\Users\\ABDUL WAHAB\\OneDrive\\Desktop\\MyBlockChain\\micro-credentialing\\contracts\\MicroCredentialing.sol",
  "compiler": {
    "name": "solc",
    "version": "0.8.0+commit.c7dfd78e.Emscripten.clang"
  },
  "schemaVersion": "3.4.16",
  "updatedAt": "2024-06-06T14:05:12.489Z",
  "networkType": "ethereum",
  "devdoc": {
    "kind": "dev",
    "methods": {},
    "version": 1
  },
  "userdoc": {
    "kind": "user",
    "methods": {},
    "version": 1
  }
}